:03000000020D04EA
:0C0D0400787FE4F6D8FD758107020D4BE6
:1019660012166C1210A9121487121278121A3580E8
:01197600F57B
:10185D0090FF017401F090FF03F075B4807F147E4A
:0B186D00001219B890FE9B7449F02295
:10191200E4FFFE75B50143B440E5B430E5FB53B4D2
:05192200DFAEB7AFB617
:01192700229D
:10192800E4FFFE75B50343B440E5B430E5FB53B4BA
:05193800DFAEB7AFB601
:01193D002287
:0B07FA00900008EBF0A3EAF0A3E9F088
:1008050090000E1205C700000000E4900012F0F001
:1008150090000EE0F8A3E0F9A3E0FAA3E0FB1219BB
:1008250012E4FCFDEB2FFFEA3EFEED39FDEC38FC52
:1008350090000E1205BB900012E004F0E0C3940591
:1008450040CE90000EE0FCA3E0FDA3E0FEA3E0FF98
:10085500E47B05FAF9F812051B90000E1205BBE4BE
:100865007F887E13FDFC90000EE0F8A3E0F9A3E07D
:10087500FAA3E0FB120490E4FB7A10F9F812051BC9
:10088500900008E0FBA3E0FAA3E0F9EE8FF0120474
:100895007190000E1205C700000000E4900012F0F0
:1008A50090000EE0F8A3E0F9A3E0FAA3E0FB12192B
:1008B50028E4FCFDEB2FFFEA3EFEED39FDEC38FCAC
:1008C50090000E1205BB900012E004F0E0C3940501
:1008D50040CE90000EE0FCA3E0FDA3E0FEA3E0FF08
:1008E500E47B05FAF9F812051B90000E1205BBE42E
:1008F5007F887E13FDFC90000EE0F8A3E0F9A3E0ED
:10090500FAA3E0FB120490E4FB7A10F9F812051B38
:1009150090000BE0FBA3E0FAA3E0F9EE8FF00204F0
:010925007160
:0E19B800EF1F70011E144E6004000080F32229
:1018FB007DA07C01ED1D70011C144C70F7EF1F7067
:06190B00011E144E70EAFB
:0119110022B3
:031A39000219B8D7
:0F14450045002000000000004400252020121464
:1017DE00D310AF01C3C0D075FDF075FC0F8EFA8F1C
:1017EE00F975FDD275FC2D75FDE175FC1ED0D092FC
:0217FE00AF2218
:10174500D310AF01C3C0D08FFB75FDF075FC0FAE94
:1017550004AF058EFA8FF975FDB475FC4B75FDE187
:0817650075FC1ED0D092AF22EA
:0C120B007B017A0079207D057F047E3C89
:10121700D310AF01C3C0D0900001EEF0A3EFF0A34D
:0B122700EDF0A3EBF0A3EAF0A3E9F068
:10123200E4A3F0C2AFF0900003E0FF900007E0C328
:101242009F502C900004E0FBA3E475F00112045BB4
:10125200A9F0FA1203C5FF900001E475F00112042F
:101262005BADF0FC121745900007E004F080C7D296
:01127200AFCC
:05127300D0D092AF2273
:040003008F828E83D7
:03000700E493FF80
:01000A0022D3
:10150900900001EEF0A3EFF0A3EBF0A3EAF0A3E95A
:10151900F0AF051DEF6028900001E475F001120499
:101529005B85F082F583E493FF900003E0FBA3E47D
:1015390075F00112045BA9F0FAEF1203DE80D222E2
:10163900E4FDFCED2400FFE4343CFE1200037425B4
:101649002DF582E43400F583E0B507030C80037FB0
:1016590000220DEDB404DCECC3940440037F0122A5
:021669007F0000
:01166B00225C
:10119900E4900000F090FE927404F0121639EF709A
:1011A9000790000004F080247B017A0079207D05F6
:1011B9007F047E3C121509900020E0D39409500663
:1011C900A3E0940540069000007401F0900000E04F
:1011D9006401702D90002004F0A37403F07F007E59
:1011E9003C1217DE7B017A0079257D041212171251
:1011F900120B7B017A0079257D047F007E3C121554
:0112090009DB
:01120A0022C1
:101794007F047E3C1217DE7B017A0079257D047F6D
:1017A4000012121712120B7B017A0079207D057F3B
:0617B400047E3C02150951
:1018780090FF0974C1F090FF08F090FF07F090FF07
:0B18880006F0D291D290D287D28622C7
:08154900900008EFF0A3EDF0A3
:10155100E4A3F0F0900009E0FFA3E0C39F5027C28D
:1015610087900008E020E704C2868002D286D287F5
:101571007F057E00121A39900008E025E0F0900006
:061581000AE004F080CE38
:011587002241
:08158800900008EFF0A3EDF064
:10159000E4A3F0F0900009E0FFA3E0C39F5027C24E
:1015A00087900008E020E004C2868002D286D287BD
:1015B0007F057E00121A39900008E0C313F09000F6
:0615C0000AE004F080CEF9
:0115C6002202
:10189300900007EFF0C2917D047F801215499000FC
:0B18A30007E0FF7D08121549D29122DA
:10169B00900006EFF0A3EDF0C2917D037FA0121531
:1016AB0049900006E025E025E0FF7D0612154990E4
:0C16BB000007E0FF7D04121588D2912288
:0A14540043003100000041003000A9
:10182100E4900000F0F0900000E0FFC39420500D20
:0D1831007D0F12169B900000E004F080E98E
:01183E002287
:10183F00E4900000F0F0900000E0FFC39420500D02
:0D184F00E4FD12169B900000E004F080E91B
:01185C002269
:100C7100EF14B409004003020D03900C8975F003D1
:100C8100A4C58325F0C58373020CA4020CA8020C31
:100C9100B3020CBE020CC9020CD4020CDF020CEA36
:100CA100020CF57D0680397D0B7F1D12169B7D0C94
:100CB100804B7D0F7F1D12169B7D0480407D067F3A
:100CC1001D12169B7D0680357D0D7F1D12169B7DA5
:100CD10006802A7D0D7F1D12169B7D0E801F7D07CC
:100CE1007F1D12169BE4FD80147D0F7F1D12169B44
:100CF1007D0E80097D0F7F1D12169B7D067F1E12C2
:030D0100169B221C
:100F2A00EF14601F14602E24027078900033E0FFE3
:100F3A00120C71121A1BEF64017068900021E0FF15
:100F4A000219547F06121893900030E0702A121A80
:100F5A00057D0180107F06121893900030E070180A
:100F6A00121A057D097F1D12169B7D0E7F1E121611
:100F7A009B9000307401F022121A10E4FD7F1D12BA
:100F8A00169BE4FD7F1E12169BE4FD7F1B12169B27
:100F9A00E4FD7F1C12169BE4FD7F1F12169BE49052
:030FAA000030F024
:010FAD002221
:100FAE00900031E0FF540F64017073EF54F0F0A322
:100FBE00E014601B14602314602B14603A14604913
:100FCE002405705A7D0A7F1B12169B7D0E80317D83
:100FDE000B7F1B12169B7D0A80267D0E7F1B121621
:100FEE009B7D0A801B7D0A7F1B12169B7D0A7F1C30
:100FFE0012169B7D0B80227D0A7F1B12169B7D0B8A
:10100E007F1C12169B7D0A80107D0A7F1B12169B79
:0F101E007D0A7F1C12169B7D0E7F1F12169B22D0
:1017BA001218787F521218937F301218937F0A12E8
:1017CA0018937F081218937F021218937F06121833
:0417DA00930218213D
:1013BA00900031E054F04401F0EF14601614601A02
:1013CA0014601E14602214602624057028E490001C
:1013DA0032F0229000327401F0229000327402F04E
:1013EA00229000327403F0229000327404F02290AA
:0613FA0000327405F02230
:10176D00EF14600F1460162402701B900031E054CA
:10177D000FF022900031E0540F4410F02290003110
:07178D00E0540F4420F0229C
:10195400900006EFF07F06121893900006E0FF0255
:0219640013BAB4
:10193E00900000EFF07F06121893900000E0FF90E9
:06194E000033F0020C71F1
:10145E004100290042002A000041002C0042002DCC
:06146E00000041002F0107
:1018AE0090FF1D7461F090FF15F090FF16F090FF01
:0B18BE001774C1F090FF117451F0226C
:100D9000E4FFA2A533FE900029E014601A14603F1E
:100DA00014606B2403706DEE706F90002AF0A3F056
:100DB00090002904F08062EE705890002BE004F05F
:100DC000700690002AE004F0C390002BE09403909A
:100DD000002AE0940040429000297402F0803AEE2C
:100DE000B401047F04802D90002BE004F070069085
:100DF000002AE004F0C390002BE0947890002AE0F1
:100E0000940040157F059000297403F0800BEEB428
:090E100001078000E4900029F0C4
:010E190022B6
:100E1A00E4FFA2A633FE90002CE014601A14603F8F
:100E2A0014606B2403706DEE706F90002DF0A3F0C8
:100E3A0090002C04F08062EE705890002EE004F0CE
:100E4A00700690002DE004F0C390002EE094039009
:100E5A00002DE09400404290002C7402F0803AEE9B
:100E6A00B401047F04802D90002EE004F0700690F7
:100E7A00002DE004F0C390002EE094F090002DE0E5
:100E8A00940040157F0690002C7403F0800BEEB49A
:090E9A0001078000E490002CF037
:010EA300222C
:100EA400120D90BF05037F012290002FE0601220F5
:100EB400A50F900013E020E008E490002FF07F04D9
:100EC40022120E1AEF64067027121A1BEF70189084
:100ED4000024E07012900013E04401F090002474A8
:100EE40001F0121794803C900013E054FEF080331C
:100EF40090002FE0601E30A60320B518900013E088
:100F040020E011E490002FF020A6037F032220B5F7
:100F1400127F022230A60C30B50930A50690002FAE
:050F24007401F07F00E4
:010F290022A5
:0914740041003400420035000083
:0F19A90090FF107461F090FF1274C1F0D2A2226F
:0D19C600E4FF1219A920A0030F80027F0288
:0119D30022F1
:100A1400E4900000F0A3F0A3F0A3F0A31205C70034
:100A240000000090000B7401F0A37400F0A37402A2
:100A3400F07B017A0079001207FA900000E0FCA331
:100A4400E0FDE4120342E4FBFA797A7844120227C7
:100A5400C004C005C006C007900002E0FCA3E0FD8E
:100A6400E4120342E4FBFA797A7844120227D003B1
:100A7400D002D001D000120029C004C005C006C0B5
:100A840007900000E0FCA3E0FDE4120342E4FBFA5B
:100A9400797A7844120227E4FBFA79FF7843120248
:100AA40027A804A905AA06AB07D007D006D005D00D
:100AB400041202279000041205BBE4FFFE7D487C6B
:100AC40044900004E0F8A3E0F9A3E0FAA3E0FB12E9
:100AD40002C4501FE4FFFE7D2F7C44900004E0F824
:100AE400A3E0F9A3E0FAA3E0FB1202C4600540030B
:050AF4007F03227F00DA
:010AF90022DA
:10112200900034E014603624FE6069146061240487
:10113200706420A51120A50E20A50B900034740424
:10114200F0E4A3F0A3F0900035E475F00112044539
:10115200FEC3E5F09410EE9427403B8026120A1459
:10116200BF030B9000347404F0E4A3F0A3F09000EA
:1011720035E475F001120445FEC3E5F09405EE94E2
:101182000040139000347403F0E4A3F0A3F022D2E1
:07119200A7C2A222D2A22293
:101977001219C6BF010AD2A7121122121A3580F80E
:01198700223D
:0D19D40090FF0074C1F090FF027461F022DA
:1018C90020820990001DE0700304F02290001DE0C1
:0A18D900B401063082037402F0220D
:101487001218C9900015E030E33490001DE0B40253
:101497002FA374FFF5F0120445FEC3E5F09401EEA7
:1014A7009400501C90001EE4F0A37432F0D2807FA9
:1014B7001E7E001218FBC280E490001DF022C2803D
:0114C7002202
:10199900EF9000157005E054F7F022E04408F022BA
:10166C00121A25D2AF12000E12171C1218AE121835
:10167C005D1217BA1211991219D41210A97F021205
:0F168C0019E17F05121999121977E4FF021999D4
:1010A900900013E054FEF054FDF054FBF054EFF0BF
:1010B90054F7F054BFF054DFF0900015E054FDF000
:1010C900900013E0547FF0900015E054FEF0E49096
:1010D9000014F0900016F0A3F090001AF0A3F0901D
:1010E9000018F0A3F090001CF0900015E054F7F000
:1010F90090001EE4F0A37432F0E490001DF0D2A732
:101109007FD07E071218FB12183F7F0512193E7F08
:09111900D07E071218FBC2A722C8
:10102D00EFB40A00507590103AF828287302105842
:10103D0002106202106202106202106C021076023F
:10104D00108002108A02109402109E900016E4F097
:10105D00A3741EF022900016E4F0A3743CF02290CD
:10106D000016E4F0A3745AF022900016E4F0A37475
:10107D0078F022900016E4F0A37496F022900016FA
:10108D00E4F0A374B4F022900016E4F0A374F0F031
:0C109D00229000167401F0A3742CF022C5
:10132300900020E0B40A005046901333F828287345
:1013330002135102135302135A02135C0213630282
:10134300136502136C02136C02136C02136C80009E
:1013530090001C7401F022800090001C7403F022A2
:10136300800090001C7405F02290001C7408F02289
:1012CE00900021E014601814601F14602714602F22
:1012DE001460372405703DE490001AF0A3F02290BC
:1012EE00001A7407F0A304F02290001A740EF0A3F3
:1012FE007410F02290001A741CF0A37420F0229047
:10130E00001A7438F0A37440F02290001A7470F032
:05131E00A37480F02221
:1016C700900020E0C394064021900019E004F070D8
:1016D70006900018E004F0D3900019E094109000F1
:0B16E70018E0940E4004E4F0A3F02291
:0B19FA0030A107900013E04480F022B1
:1016F200900013E030E22290001674FFF5F012041D
:1017020045FEC3E5F09401EE9400500D900013E005
:0A17120054F7F054FBF012132322E9
:10137300121A1BEF6401703E1216F21216C7D390B5
:10138300001BE0940190001AE09400400DA3E024B8
:10139300FFF090001AE034FFF022900021E0601685
:1013A300E490001AF0A3F0900016F0A3F0FF1219D6
:0713B300887F041218932249
:1015C700900008EEF0A3EFF0A3ECF0A3EDF0D39FAB
:1015D700EC9E4004E4FF802290001CE0FFC39000D3
:1015E70009E09FFF900008E09400FEC390000BE025
:0E15F7009F90000AE09E50057F051219992270
:100AFA00900006EEF0A3EFF0900013E030E30D90C3
:100B0A000006E0FCA3E0FD7F4D020BB1900020E05F
:100B1A00B40A004003020BB6900B29F82828730286
:100B2A000B47020B53020B5F020B6B020B77020B94
:100B3A0083020B8F020B9B020B9B020BA7900006F2
:100B4A00E0FCA3E0FD7F1E805E900006E0FCA3E0CF
:100B5A00FD7F2B8052900006E0FCA3E0FD7F2F80F2
:100B6A0046900006E0FCA3E0FD7F32803A90000642
:100B7A00E0FCA3E0FD7F36802E900006E0FCA3E0B7
:100B8A00FD7F3C8022900006E0FCA3E0FD7F4180CF
:100B9A0016900006E0FCA3E0FD7F46800A9000065E
:0D0BAA00E0FCA3E0FD7F4B7E001215C7228A
:1005F800900008ECF0A3EDF0900006EEF0FAA3EFFF
:02060800F0FB05
:10060A00E490000AF0A37432F0A3740AF0A312056E
:10061A00C700000000C3EB9432EA94004016900031
:10062A0008E0FEA3E0FF900006E0FCA3E0FDD39FF4
:10063A00EC9E40057E007F6522E4120342E4FBFA49
:10064A00797A7844120227C004C005C006C0079010
:10065A000008E0FCA3E0FDE4120342E4FBFA797A25
:10066A007844120227D003D002D001D00012002908
:10067A00C004C005C006C007900006E0FCA3E0FD68
:10068A00E4120342E4FBFA797A7844120227E4FB83
:10069A00FA79FF7843120227A804A905AA06AB072C
:1006AA00D007D006D005D00412022790000D1205FB
:1006BA00BBE4FFFEFDFC90000DE0F8A3E0F9A3E027
:1006CA00FAA3E0FB1202C450057E007F6622900066
:1006DA000DE0FCA3E0FDA3E0FEA3E0FFE4FBFAF9D2
:1006EA00784112022790000D1205BBE4FFFE7D92AD
:1006FA007C4290000DE0F8A3E0F9A3E0FAA3E0FB46
:10070A001202C45004E4FEFF2290000DE0FCA3E0B4
:10071A00FDA3E0FEA3E0FF7BF37A1F79B6784212CD
:10072A00022790000D1205BB7FF37E1F7DB67C4227
:10073A0090000DE0F8A3E0F9A3E0FAA3E0FB1201B0
:10074A001E7BF37A1F79B678421202C4504C90008D
:10075A000DE0FCA3E0FDA3E0FEA3E0FF7B497A9D48
:10076A007980783F12022790000D1205BB90000A8B
:10077A00E004F0E4FFFE7D807C3F90000DE0F8A3EA
:10078A00E0F9A3E0FAA3E0FB1202C4600250BF90B2
:10079A00000AE0FFA3E02FF0804E90000DE0FCA3DA
:1007AA00E0FDA3E0FEA3E0FF7B6D7AC5797E783F8A
:1007BA0012022790000D1205BB90000AE004F0E433
:1007CA00FFFE7D807C3F90000DE0F8A3E0F9A3E0F6
:1007DA00FAA3E0FB1202C440C190000BE0FF9000B4
:0F07EA000AE0FEC3EF9EA3F090000BE0FF7E003D
:0107F90022DD
:10092600E4900000F0A3F0A3F0A3F0A3F0A3F0126C
:1009360019FA90000B7401F0A37400F0A37404F08C
:100946007B017A0079021207FA900002E0FEA3E02A
:10095600FFA3E0FCA3E0FD1205F8900000EEF0A373
:10096600EFF0D3900003E09432900002E094004050
:1009760069900013E020E762121A1BEF64017042CF
:10098600900013E030E12E54FDF0D3900001E09486
:1009960032900000E09400900013E04404400CF014
:1009A60054F7F090001C7408F0800AF04408F090A8
:1009B600001C7401F0900000E0FEA3E0FF120AFAAA
:1009C600800AE4FF1219997F04121893900015E02B
:1009D60054FEF0E4FF12176D8029900013E020E723
:1009E6000754FEF07F01800C900013E030E71454AA
:1009F600FEF07F0212176DE4FF121999900015E0C0
:0E0A06004401F0900031E0C4540FFF020F2AAB
:0B1A0500900013E04410F0E4A3F02276
:0B1A1000900013E054EFF0E4A3F0227C
:10180000900013E030E417D2A7A3E004F0C394964D
:10181000400EC2A7E4F0900013E054EFF022C2A7FC
:0118200022A5
:0A1A1B00900013E0C4135401FF22F1
:10198800EF5401C43354E0FF900013E054DF4FF0EC
:01199800222C
:10140000900015E020E03D121A1BBF010DE4FF1211
:1014100019887F04121893021A107F01121988127A
:101420001A051212CE900013E04402F0900020E062
:10143000FF12102D900020E0FF12193E900021E0D5
:05144000FF1219542207
:1014C800121A1BEF64017038900015E020E0311209
:1014D8001A05900020E0C394095005E004F0800646
:1014E8009000207401F0900013E04402F090002076
:1014F800E0FF12193E900020E0FF12102D12179401
:0115080022C0
:10160500121A1BEF6401702B900015E020E02412E4
:101615001A05900021E0C394055005E004F080050B
:10162500E4900021F0900021E0FF1219541212CE2F
:0416350012179422D2
:1018E300120EA4EF24FE600C146006147009021497
:0718F300000216051214C8E3
:0118FA0022CB
:10127800900039E030E00A1218E3900039E054FE9B
:10128800F0900039E030E70A121800900039E05475
:101298007FF0900039E030E40A120926900039E026
:1012A80054EFF0900039E030E20A120FAE900039A6
:1012B800E054FBF0900039E030E50A121373900017
:0612C80039E054DFF022C2
:09147D0042003700004100390073
:0A1A2500758E5190FE917401F022BD
:10000E00E490FE80F0F589758CCB758AEB43A802DF
:04001E0043881022E1
:03000B00020BB72E
:100BB700C0E0C0F0C083C082C0D075D000C000C004
:100BC70002C003C004C005C006C007900038E00497
:100BD700F07006900037E004F0900039E04401F02F
:100BE700900037E0FAA3E0FB7C007D0AFFAE02121B
:100BF70003F0ED4C7005A3E04404F07C007D05AFE5
:100C070003AE021203F0ED4C7007900039E0440286
:100C1700F0900037E0FEA3E0FF7C007D321203F086
:100C2700ED4C7005A3E04410F0900037E0FAA3E024
:100C3700FB7C007D64FFAE021203F0ED4C7005A350
:100C4700E04420F0EB20E007900039E04480F0C258
:100C57008FD007D006D005D004D003D002D000D063
:0A0C6700D0D082D083D0F0D0E0326C
:10171C0090FF0E74C1F090FF0F7461F090FFA074F5
:10172C0016F090FFA104F075CEFF75CD9875CC0620
:09173C00759E02759810D2AC22D2
:0C19EE00C2AC8F993099FDC299D2AC2296
:061A2F00AE071219EE22C1
:03002300020022B6
:0100220032AB
:0D19E10075BD17EF75F02BA490FEA0F0224D
:041A350043BD10227B
:100026000203B0E86480F8E933E83360110460F055
:10003600ED33EC337009E8FCE9FDEAFEEBFF220440
:1000460060DED3EB9FEA9EE99DE8C2E78CF0C2F73B
:1000560095F0400CE8CCF8E9CDF9EACEFAEBCFFB07
:1000660012037B85D0F05804700320D5B3E80470E2
:10007600075002B2D50203BA92D5EC0460F7E4CC7D
:10008600C0E0C398F8603B94186008400DD0E0FBD0
:10009600020392E4FBFAC9FC8028E830E406E4C9CE
:1000A600FBE4CAFCE830E305E4C9CACBFCE8540724
:1000B6006010F8C3E913F9EA13FAEB13FBEC13FC2F
:1000C600D8F130F52FC3E49CFCEF9BFFEE9AFEEDD2
:1000D60099FDD0E0FBEF4E4D4C701222DB0302037C
:1000E600B7EC2CFCEF33FFEE33FEED33FDED30E7DE
:1000F600EB020392EF2BFFEE3AFEED39FDD0E0FB6B
:1001060050130BBB00030203BAED13FDEE13FEEF13
:0801160013FFEC13FC0203923D
:10011E00EC4D6011E8497017ED33EC3304600DE4DB
:10012E00FCFFFEFD22E933E8330470F80203B0123F
:10013E00037B58046009E4CC248150062850090240
:10014E0003BA2840030203B7C0E0EB4A7044B980FB
:10015E0006D0E0FB0203A6EF4E701CBD8008EBFF3D
:10016E00EAFEE9FD80EBE98DF0A4FEE5F002020760
:10017E00E9CDF9EAFEEBFFEF89F0A4FCE5F0CE89BC
:10018E00F0A42EFFE435F0CD89F0A42DFEE435F079
:10019E008067EF4E7005BD80D780C3EF8BF0A4ACA7
:1001AE00F0EE8BF0A42CFCE435F0F8EF8AF0A42CE2
:1001BE00E5F038FCE433CB8DF0A42CFCE5F03BF8F5
:1001CE00EE8AF0A42CFCE5F038F8E433CF89F0A4E5
:1001DE002CFCE5F038CF3400CE89F0A42FFFE5F0EB
:1001EE003EFEE433C98DF0A42EFEE5F039CD8AF043
:1001FE00A42FFFE5F03EFEE43DFD33D0E0FB5007BB
:10020E000BBB000F0203BAEC2CFCEF33FFEE33FEF8
:06021E00ED33FD02039226
:100224000203BAEC5D046005E8590470030203B0EC
:1002340012037B580460F6EC4860F2EC7004FDFE97
:10024400FF22C860DB2481C85009C39860025006AD
:100254000203B79850CAF582E9294B4A7005AB826C
:100264000203A675F0007C1A7880C3EF9BEE9AED2A
:1002740099400DC3EF9BFFEE9AFEED99FDE842F025
:10028400DC23ACF0D0E0FFD0E0FED0E0FDAB822078
:10029400E7101BEB60BAEC2CFCEF33FFEE33FEED02
:1002A40033FD020392E803F830E705C0F075F0006F
:1002B400EF2FFFEE33FEED33FD40B830E7C280AAE6
:1002C40074F8CC6480CCC86480C8F58204604FC3E1
:1002D400EB9FF5F0EA9E42F0E99D42F0E89C45F080
:1002E400603C501DE5825FFFE582D313CB5BCBF40A
:1002F4002B5582FB50280ABA002409B90020088033
:100304001DE5825BFBE582D313CF5FCFF4C3132FCC
:100314005582FF50090EBE00050DBD00010CC3EB54
:100324009FF5F0EA9E42F0E99D42F0E89C45F060BA
:0903340007CC4820E701B3EC22DC
:10033D0075F020800E75F010800575F0087D007E3B
:10034D00007F003392D530D5031205ADEC3340104C
:10035D00EF33FFEE33FEED33FDEC33FCD5F0ED2244
:0E036D00E5F0247EA2D513CC92E7CDCEFF2280
:10037B00E9D2E7C933E833F892D5EDD2E7CD33ECC8
:07038B0033FC5002B2D52241
:10039200EC30E7100FBF000C0EBE00080DBD0004CC
:1003A2000BEB6014A2D5EB13FCED92E7FD2274FF78
:1003B200FCFDFEFF22E480F8A2D574FF13FC7D80D1
:0303C200E480EFE5
:100D1000021966E493A3F8E493A34003F68001F27A
:100D200008DFF48029E493A3F85407240CC8C333E4
:100D3000C4540F4420C8834004F456800146F6DFB3
:100D4000E4800B0102040810204080901445E47EEA
:100D5000019360BCA3FF543F30E509541FFEE493A8
:100D6000A360010ECF54C025E060A840B8E493A36F
:100D7000FAE493A3F8E493A3C8C582C8CAC583CA9A
:100D8000F0A3C8C582C8CAC583CADFE9DEE780BE52
:011486000065
:1003C500BB010689828A83E0225002E722BBFE0236
:0903D500E32289828A83E4932269
:1003DE00BB010689828A83F0225002F722BBFE01FE
:0203EE00F322F8
:1003F000BC000BBE0029EF8DF084FFADF022E4CCF1
:10040000F875F008EF2FFFEE33FEEC33FCEE9DECB9
:10041000984005FCEE9DFE0FD5F0E9E4CEFD22EDFF
:10042000F8F5F0EE8420D21CFEADF075F008EF2F49
:10043000FFED33FD4007985006D5F0F222C398FD3A
:050440000FD5F0EA22D7
:10044500C5F0F8A3E028F0C5F0F8E5821582700242
:060455001583E038F022DF
:10045B00A3F8E0C5F025F0F0E58215827002158354
:06046B00E0C838F0E822B1
:10047100BB010A89828A83F0E5F0A3F0225006F7D6
:0F04810009A7F01922BBFE06F3E5F009F31922D3
:10049000E88FF0A4CC8BF0A42CFCE98EF0A42CFC0B
:1004A0008AF0EDA42CFCEA8EF0A4CDA8F08BF0A489
:1004B0002DCC3825F0FDE98FF0A42CCD35F0FCEBE8
:1004C0008EF0A4FEA9F0EB8FF0A4CFC5F02ECD39AD
:0F04D000FEE43CFCEAA42DCE35F0FDE43CFC221A
:1004DF0075F008758200EF2FFFEE33FECD33CDCCD4
:1004EF0033CCC58233C5829BED9AEC99E582984057
:1004FF000CF582EE9BFEED9AFDEC99FC0FD5F0D634
:10050F00E4CEFBE4CDFAE4CCF9A88222B800C1B95D
:10051F000059BA002DEC8BF084CFCECDFCE5F0CB9B
:10052F00F97818EF2FFFEE33FEED33FDEC33FCEBD4
:10053F0033FB10D703994004EB99FB0FD8E5E4F98F
:10054F00FA227818EF2FFFEE33FEED33FDEC33FC7C
:10055F00C933C910D7059BE99A4007EC9BFCE99A70
:10056F00F90FD8E0E4C9FAE4CCFB2275F010EF2FB5
:10057F00FFEE33FEED33FDCC33CCC833C810D707B5
:10058F009BEC9AE899400AED9BFDEC9AFCE899F8F0
:0E059F000FD5F0DAE4CDFBE4CCFAE4C8F92283
:0E05AD00C3E49FFFE49EFEE49DFDE49CFC225F
:0C05BB00ECF0A3EDF0A3EEF0A3EFF022B3
:1005C700A8828583F0D083D0821205DE1205DE1261
:1005D70005DE1205DEE473E493A3C583C5F0C58386
:1005E700C8C582C8F0A3C583C5F0C583C8C582C87E
:0105F70022E1
:00000001FF
