:03000000020D10DE
:0C0D1000787FE4F6D8FD758107020D57CE
:101972001216781210B5121493121284121A4180A0
:01198200F56F
:1018690090FF017401F090FF03F075B4807F147E3E
:0B187900001219C490FE9B7449F0227D
:10191E00E4FFFE75B50143B440E5B430E5FB53B4C6
:05192E00DFAEB7AFB60B
:011933002291
:10193400E4FFFE75B50343B440E5B430E5FB53B4AE
:05194400DFAEB7AFB6F5
:01194900227B
:0B07FA00900008EBF0A3EAF0A3E9F088
:1008050090000E1205C700000000E4900012F0F001
:1008150090000EE0F8A3E0F9A3E0FAA3E0FB1219BB
:100825001EE4FCFDEB2FFFEA3EFEED39FDEC38FC46
:1008350090000E1205BB900012E004F0E0C3940591
:1008450040CE90000EE0FCA3E0FDA3E0FEA3E0FF98
:10085500E47B05FAF9F812051B90000E1205BBE4BE
:100865007F887E13FDFC90000EE0F8A3E0F9A3E07D
:10087500FAA3E0FB120490E4FB7A10F9F812051BC9
:10088500900008E0FBA3E0FAA3E0F9EE8FF0120474
:100895007190000E1205C700000000E4900012F0F0
:1008A50090000EE0F8A3E0F9A3E0FAA3E0FB12192B
:1008B50034E4FCFDEB2FFFEA3EFEED39FDEC38FCA0
:1008C50090000E1205BB900012E004F0E0C3940501
:1008D50040CE90000EE0FCA3E0FDA3E0FEA3E0FF08
:1008E500E47B05FAF9F812051B90000E1205BBE42E
:1008F5007F887E13FDFC90000EE0F8A3E0F9A3E0ED
:10090500FAA3E0FB120490E4FB7A10F9F812051B38
:1009150090000BE0FBA3E0FAA3E0F9EE8FF00204F0
:010925007160
:0E19C400EF1F70011E144E6004000080F3221D
:101907007DA07C01ED1D70011C144C70F7EF1F705A
:06191700011E144E70EAEF
:01191D0022A7
:031A45000219C4BF
:0F14510045002000000000004400252020121458
:1017EA00D310AF01C3C0D075FDF075FC0F8EFA8F10
:1017FA00F975FDD275FC2D75FDE175FC1ED0D092F0
:02180A00AF220B
:10175100D310AF01C3C0D08FFB75FDF075FC0FAE88
:1017610004AF058EFA8FF975FDB475FC4B75FDE17B
:0817710075FC1ED0D092AF22DE
:0C1217007B017A0079207D057F047E3C7D
:10122300D310AF01C3C0D0900001EEF0A3EFF0A341
:0B123300EDF0A3EBF0A3EAF0A3E9F05C
:10123E00E4A3F0C2AFF0900003E0FF900007E0C31C
:10124E009F502C900004E0FBA3E475F00112045BA8
:10125E00A9F0FA1203C5FF900001E475F001120423
:10126E005BADF0FC121751900007E004F080C7D27E
:01127E00AFC0
:05127F00D0D092AF2267
:040003008F828E83D7
:03000700E493FF80
:01000A0022D3
:10151500900001EEF0A3EFF0A3EBF0A3EAF0A3E94E
:10152500F0AF051DEF6028900001E475F00112048D
:101535005B85F082F583E493FF900003E0FBA3E471
:1015450075F00112045BA9F0FAEF1203DE80D222D6
:10164500E4FDFCED2400FFE4343CFE1200037425A8
:101655002DF582E43400F583E0B507030C80037FA4
:1016650000220DEDB404DCECC3940440037F012299
:021675007F00F4
:011677002250
:1011A500E4900000F090FE927404F0121645EF7082
:1011B5000790000004F080247B017A0079207D05EA
:1011C5007F047E3C121515900020E0D3940950064B
:1011D500A3E0940540069000007401F0900000E043
:1011E5006401702D90002004F0A37403F07F007E4D
:1011F5003C1217EA7B017A0079257D04121223122D
:1012050012177B017A0079257D047F007E3C12153B
:0112150015C3
:0112160022B5
:1017A0007F047E3C1217EA7B017A0079257D047F55
:1017B000001212231212177B017A0079207D057F17
:0617C000047E3C02151539
:1018840090FF0974C1F090FF08F090FF07F090FFFB
:0B18940006F0D291D290D287D28622BB
:08155500900008EFF0A3EDF097
:10155D00E4A3F0F0900009E0FFA3E0C39F5027C281
:10156D0087900008E020E704C2868002D286D287E9
:10157D007F057E00121A45900008E025E0F09000EE
:06158D000AE004F080CE2C
:011593002235
:08159400900008EFF0A3EDF058
:10159C00E4A3F0F0900009E0FFA3E0C39F5027C242
:1015AC0087900008E020E004C2868002D286D287B1
:1015BC007F057E00121A45900008E0C313F09000DE
:0615CC000AE004F080CEED
:0115D20022F6
:10189F00900007EFF0C2917D047F801215559000E4
:0B18AF0007E0FF7D08121555D29122C2
:1016A700900006EFF0A3EDF0C2917D037FA0121525
:1016B70055900006E025E025E0FF7D0612155590C0
:0C16C7000007E0FF7D04121594D2912270
:0A146000430031000000410030009D
:10182D00E4900000F0F0900000E0FFC39420500D14
:0D183D007D0F1216A7900000E004F080E976
:01184A00227B
:10184B00E4900000F0F0900000E0FFC39420500DF6
:0D185B00E4FD1216A7900000E004F080E903
:01186800225D
:100C7D00EF14B409004003020D0F900C9575F003AD
:100C8D00A4C58325F0C58373020CB0020CB4020C0D
:100C9D00BF020CCA020CD5020CE0020CEB020CF6E2
:100CAD00020D017D0680397D0B7F1D1216A77D0C6F
:100CBD00804B7D0F7F1D1216A77D0480407D067F22
:100CCD001D1216A77D0680357D0D7F1D1216A77D81
:100CDD0006802A7D0D7F1D1216A77D0E801F7D07B4
:100CED007F1D1216A7E4FD80147D0F7F1D1216A720
:100CFD007D0E80097D0F7F1D1216A77D067F1E12AA
:030D0D0016A72204
:100F3600EF14601F14602E24027078900033E0FFD7
:100F4600120C7D121A27EF64017068900021E0FFF1
:100F56000219607F0612189F900030E0702A121A5C
:100F6600117D0180107F0612189F900030E07018E6
:100F7600121A117D097F1D1216A77D0E7F1E1216ED
:100F8600A79000307401F022121A1CE4FD7F1D1296
:100F960016A7E4FD7F1E1216A7E4FD7F1B1216A7F7
:100FA600E4FD7F1C1216A7E4FD7F1F1216A7E4902E
:030FB6000030F018
:010FB9002215
:100FBA00900031E0FF540F64017073EF54F0F0A316
:100FCA00E014601B14602314602B14603A14604907
:100FDA002405705A7D0A7F1B1216A77D0E80317D6B
:100FEA000B7F1B1216A77D0A80267D0E7F1B121609
:100FFA00A77D0A801B7D0A7F1B1216A77D0A7F1C0C
:10100A001216A77D0B80227D0A7F1B1216A77D0B65
:10101A007F1C1216A77D0A80107D0A7F1B1216A755
:0F102A007D0A7F1C1216A77D0E7F1F1216A722AC
:1017C6001218847F5212189F7F3012189F7F0A12B8
:1017D600189F7F0812189F7F0212189F7F06121803
:0417E6009F02182D19
:1013C600900031E054F04401F0EF14601614601AF6
:1013D60014601E14602214602624057028E4900010
:1013E60032F0229000327401F0229000327402F042
:1013F600229000327403F0229000327404F022909E
:0614060000327405F02223
:10177900EF14600F1460162402701B900031E054BE
:101789000FF022900031E0540F4410F02290003104
:07179900E0540F4420F02290
:10196000900006EFF07F0612189F900006E0FF023D
:0219700013C69C
:10194A00900000EFF07F0612189F900000E0FF90D1
:06195A000033F0020C7DD9
:10146A004100290042002A000041002C0042002DC0
:06147A00000041002F01FB
:1018BA0090FF1D7461F090FF15F090FF16F090FFF5
:0B18CA001774C1F090FF117451F02260
:100D9C00E4FFA2A533FE900029E014601A14603F12
:100DAC0014606B2403706DEE706F90002AF0A3F04A
:100DBC0090002904F08062EE705890002BE004F053
:100DCC00700690002AE004F0C390002BE09403908E
:100DDC00002AE0940040429000297402F0803AEE20
:100DEC00B401047F04802D90002BE004F070069079
:100DFC00002AE004F0C390002BE0947890002AE0E5
:100E0C00940040157F059000297403F0800BEEB41C
:090E1C0001078000E4900029F0B8
:010E250022AA
:100E2600E4FFA2A633FE90002CE014601A14603F83
:100E360014606B2403706DEE706F90002DF0A3F0BC
:100E460090002C04F08062EE705890002EE004F0C2
:100E5600700690002DE004F0C390002EE0940390FD
:100E6600002DE09400404290002C7402F0803AEE8F
:100E7600B401047F04802D90002EE004F0700690EB
:100E8600002DE004F0C390002EE094F090002DE0D9
:100E9600940040157F0690002C7403F0800BEEB48E
:090EA60001078000E490002CF02B
:010EAF002220
:100EB000120D9CBF05037F012290002FE0601220DD
:100EC000A50F900013E020E008E490002FF07F04CD
:100ED00022120E26EF64067027121A27EF70189060
:100EE0000024E07012900013E04401F0900024749C
:100EF00001F01217A0803C900013E054FEF0803304
:100F000090002FE0601E30A60320B518900013E07B
:100F100020E011E490002FF020A6037F032220B5EB
:100F2000127F022230A60C30B50930A50690002FA2
:050F30007401F07F00D8
:010F35002299
:0914800041003400420035000077
:0F19B50090FF107461F090FF1274C1F0D2A22263
:0D19D200E4FF1219B520A0030F80027F0270
:0119DF0022E5
:100A1400E4900000F0A3F0A3F0A3F0A31205C70034
:100A240000000090000B7401F0A37400F0A37402A2
:100A3400F07B017A0079001207FA900000E0FCA331
:100A4400E0FDE4120342E4FBFA797A7844120227C7
:100A5400C004C005C006C007900002E0FCA3E0FD8E
:100A6400E4120342E4FBFA797A7844120227D003B1
:100A7400D002D001D000120029C004C005C006C0B5
:100A840007900000E0FCA3E0FDE4120342E4FBFA5B
:100A9400797A7844120227E4FBFA79FF7843120248
:100AA40027A804A905AA06AB07D007D006D005D00D
:100AB400041202279000041205BBE4FFFE7D487C6B
:100AC40044900004E0F8A3E0F9A3E0FAA3E0FB12E9
:100AD40002C4501FE4FFFE7D2F7C44900004E0F824
:100AE400A3E0F9A3E0FAA3E0FB1202C4600540030B
:050AF4007F03227F00DA
:010AF90022DA
:10112E00900034E014603624FE606914606124047B
:10113E00706420A51120A50E20A50B900034740418
:10114E00F0E4A3F0A3F0900035E475F0011204452D
:10115E00FEC3E5F09410EE9427403B8026120A144D
:10116E00BF030B9000347404F0E4A3F0A3F09000DE
:10117E0035E475F001120445FEC3E5F09405EE94D6
:10118E000040139000347403F0E4A3F0A3F022D2D5
:07119E00A7C2A222D2A22287
:101983001219D2BF010AD2A712112E121A4180F8DE
:011993002231
:0D19E00090FF0074C1F090FF027461F022CE
:1018D50020820990001DE0700304F02290001DE0B5
:0A18E500B401063082037402F02201
:101493001218D5900015E030E33490001DE0B4023B
:1014A3002FA374FFF5F0120445FEC3E5F09401EE9B
:1014B3009400501C90001EE4F0A37496F0D2807F39
:1014C3001E7E00121907C280E490001DF022C28024
:0114D30022F6
:1019A500EF9000157005E054F7F022E04408F022AE
:10167800121A31D2AF12000E1217281218BA121805
:10168800691217C61211A51219E01210B57F0212BD
:0F16980019ED7F051219A5121983E4FF0219A598
:1010B500900013E054FEF054FDF054FBF054EFF0B3
:1010C50054F7F054BFF054DFF0900015E054FDF0F4
:1010D500900013E0547FF0900015E054FEF0E4908A
:1010E5000014F0900016F0A3F090001AF0A3F09011
:1010F5000018F0A3F090001CF0900015E054F7F0F4
:1011050090001EE4F0A37496F0E490001DF0D2A7C1
:101115007FD07E0712190712184B7F0512194A7FD7
:09112500D07E07121907C2A722AF
:10103900EFB40A005075901046F82828730210641E
:1010490002106E02106E02106E02107802108202F7
:10105900108C0210960210A00210AA900016E4F05B
:10106900A3741EF022900016E4F0A3743CF02290C1
:101079000016E4F0A3745AF022900016E4F0A37469
:1010890078F022900016E4F0A37496F022900016EE
:10109900E4F0A374B4F022900016E4F0A374F0F025
:0C10A900229000167401F0A3742CF022B9
:10132F00900020E0B40A00504690133FF82828732D
:10133F0002135D02135F02136602136802136F023A
:10134F001371021378021378021378021378800056
:10135F0090001C7401F022800090001C7403F02296
:10136F00800090001C7405F02290001C7408F0227D
:1012DA00900021E014601814601F14602714602F16
:1012EA001460372405703DE490001AF0A3F02290B0
:1012FA00001A7407F0A304F02290001A740EF0A3E7
:10130A007410F02290001A741CF0A37420F022903A
:10131A00001A7438F0A37440F02290001A7470F026
:05132A00A37480F02215
:1016D300900020E0C394064021900019E004F070CC
:1016E30006900018E004F0D3900019E094109000E5
:0B16F30018E0940E4004E4F0A3F02285
:0B1A060030A107900013E04480F022A4
:1016FE00900013E030E22290001674FFF5F0120411
:10170E0045FEC3E5F09401EE9400500D900013E0F9
:0A171E0054F7F054FBF012132F22D1
:10137F00121A27EF6401703E1216FE1216D3D39085
:10138F00001BE0940190001AE09400400DA3E024AC
:10139F00FFF090001AE034FFF022900021E0601679
:1013AF00E490001AF0A3F0900016F0A3F0FF1219CA
:0713BF00947F0412189F2225
:1015D300900008EEF0A3EFF0A3ECF0A3EDF0D39F9F
:1015E300EC9E4004E4FF802290001CE0FFC39000C7
:1015F30009E09FFF900008E09400FEC390000BE019
:0E1603009F90000AE09E50057F051219A52257
:100AFA00900006EEF0A3EFF0900013E030E30D90C3
:100B0A000006E0FCA3E0FD7F4D020BBD900020E053
:100B1A00B40A004003020BC2900B29F8282873027A
:100B2A000B47020B53020B5F020B6B020B77020B94
:100B3A0083020B8F020B9B020BA7020BB3900006DA
:100B4A00E0FCA3E0FD7F1E806A900006E0FCA3E0C3
:100B5A00FD7F2B805E900006E0FCA3E0FD7F2F80E6
:100B6A0052900006E0FCA3E0FD7F3280469000062A
:100B7A00E0FCA3E0FD7F36803A900006E0FCA3E0AB
:100B8A00FD7F3C802E900006E0FCA3E0FD7F4180C3
:100B9A0022900006E0FCA3E0FD7F46801690000646
:100BAA00E0FCA3E0FD7F48800A900006E0FCA3E099
:090BBA00FD7F4B7E001215D322D1
:1005F800900008ECF0A3EDF0900006EEF0FAA3EFFF
:02060800F0FB05
:10060A00E490000AF0A37432F0A3740AF0A312056E
:10061A00C700000000C3EB9432EA94004016900031
:10062A0008E0FEA3E0FF900006E0FCA3E0FDD39FF4
:10063A00EC9E40057E007F6522E4120342E4FBFA49
:10064A00797A7844120227C004C005C006C0079010
:10065A000008E0FCA3E0FDE4120342E4FBFA797A25
:10066A007844120227D003D002D001D00012002908
:10067A00C004C005C006C007900006E0FCA3E0FD68
:10068A00E4120342E4FBFA797A7844120227E4FB83
:10069A00FA79FF7843120227A804A905AA06AB072C
:1006AA00D007D006D005D00412022790000D1205FB
:1006BA00BBE4FFFEFDFC90000DE0F8A3E0F9A3E027
:1006CA00FAA3E0FB1202C450057E007F6622900066
:1006DA000DE0FCA3E0FDA3E0FEA3E0FFE4FBFAF9D2
:1006EA00784112022790000D1205BBE4FFFE7D92AD
:1006FA007C4290000DE0F8A3E0F9A3E0FAA3E0FB46
:10070A001202C45004E4FEFF2290000DE0FCA3E0B4
:10071A00FDA3E0FEA3E0FF7BF37A1F79B6784212CD
:10072A00022790000D1205BB7FF37E1F7DB67C4227
:10073A0090000DE0F8A3E0F9A3E0FAA3E0FB1201B0
:10074A001E7BF37A1F79B678421202C4504C90008D
:10075A000DE0FCA3E0FDA3E0FEA3E0FF7B497A9D48
:10076A007980783F12022790000D1205BB90000A8B
:10077A00E004F0E4FFFE7D807C3F90000DE0F8A3EA
:10078A00E0F9A3E0FAA3E0FB1202C4600250BF90B2
:10079A00000AE0FFA3E02FF0804E90000DE0FCA3DA
:1007AA00E0FDA3E0FEA3E0FF7B6D7AC5797E783F8A
:1007BA0012022790000D1205BB90000AE004F0E433
:1007CA00FFFE7D807C3F90000DE0F8A3E0F9A3E0F6
:1007DA00FAA3E0FB1202C440C190000BE0FF9000B4
:0F07EA000AE0FEC3EF9EA3F090000BE0FF7E003D
:0107F90022DD
:10092600E4900000F0A3F0A3F0A3F0A3F0A3F0126C
:100936001A0690000B7401F0A37400F0A37404F07F
:100946007B017A0079021207FA900002E0FEA3E02A
:10095600FFA3E0FCA3E0FD1205F8900000EEF0A373
:10096600EFF0D3900003E09432900002E094004050
:1009760069900013E020E762121A27EF64017042C3
:10098600900013E030E12E54FDF0D3900001E09486
:1009960032900000E09400900013E04404400CF014
:1009A60054F7F090001C7408F0800AF04408F090A8
:1009B600001C7401F0900000E0FEA3E0FF120AFAAA
:1009C600800AE4FF1219A57F0412189F900015E013
:1009D60054FEF0E4FF1217798029900013E020E717
:1009E6000754FEF07F01800C900013E030E71454AA
:1009F600FEF07F02121779E4FF1219A5900015E0A8
:0E0A06004401F0900031E0C4540FFF020F369F
:0B1A1100900013E04410F0E4A3F0226A
:0B1A1C00900013E054EFF0E4A3F02270
:10180C00900013E030E417D2A7A3E004F0C3949641
:10181C00400EC2A7E4F0900013E054EFF022C2A7F0
:01182C002299
:0A1A2700900013E0C4135401FF22E5
:10199400EF5401C43354E0FF900013E054DF4FF0E0
:0119A4002220
:10140C00900015E020E03D121A27BF010DE4FF12F9
:10141C0019947F0412189F021A1C7F01121994123E
:10142C001A111212DA900013E04402F0900020E03E
:10143C00FF121039900020E0FF12194A900021E0B1
:05144C00FF12196022EF
:1014D400121A27EF64017038900015E020E03112F1
:1014E4001A11900020E0C394095005E004F080062E
:1014F4009000207401F0900013E04402F09000206A
:10150400E0FF12194A900020E0FF1210391217A0D0
:0115140022B4
:10161100121A27EF6401702B900015E020E02412CC
:101621001A11900021E0C394055005E004F08005F3
:10163100E4900021F0900021E0FF1219601212DA0B
:041641001217A022BA
:1018EF00120EB0EF24FE600C14600614700902147F
:0718FF000C0216111214D4B3
:0119060022BE
:10128400900039E030E00A1218EF900039E054FE83
:10129400F0900039E030E70A12180C900039E0545D
:1012A4007FF0900039E030E40A120926900039E01A
:1012B40054EFF0900039E030E20A120FBA9000398E
:1012C400E054FBF0900039E030E50A12137F9000FF
:0612D40039E054DFF022B6
:0914890042003700004100390067
:0A1A3100758E5190FE917401F022B1
:10000E00E490FE80F0F589758CCB758AEB43A802DF
:04001E0043881022E1
:03000B00020BC322
:100BC300C0E0C0F0C083C082C0D075D000C000C0F8
:100BD30002C003C004C005C006C007900038E0048B
:100BE300F07006900037E004F0900039E04401F023
:100BF300900037E0FAA3E0FB7C007D0AFFAE02120F
:100C030003F0ED4C7005A3E04404F07C007D05AFD8
:100C130003AE021203F0ED4C7007900039E044027A
:100C2300F0900037E0FEA3E0FF7C007D321203F07A
:100C3300ED4C7005A3E04410F0900037E0FAA3E018
:100C4300FB7C007D64FFAE021203F0ED4C7005A344
:100C5300E04420F0EB20E007900039E04480F0C24C
:100C63008FD007D006D005D004D003D002D000D057
:0A0C7300D0D082D083D0F0D0E03260
:1017280090FF0E74C1F090FF0F7461F090FFA074E9
:1017380016F090FFA104F075CEFF75CD9875CC0614
:09174800759E02759810D2AC22C6
:0C19FA00C2AC8F993099FDC299D2AC228A
:061A3B00AE071219FA22A9
:03002300020022B6
:0100220032AB
:0D19ED0075BD17EF75F02BA490FEA0F02241
:041A410043BD10226F
:100026000203B0E86480F8E933E83360110460F055
:10003600ED33EC337009E8FCE9FDEAFEEBFF220440
:1000460060DED3EB9FEA9EE99DE8C2E78CF0C2F73B
:1000560095F0400CE8CCF8E9CDF9EACEFAEBCFFB07
:1000660012037B85D0F05804700320D5B3E80470E2
:10007600075002B2D50203BA92D5EC0460F7E4CC7D
:10008600C0E0C398F8603B94186008400DD0E0FBD0
:10009600020392E4FBFAC9FC8028E830E406E4C9CE
:1000A600FBE4CAFCE830E305E4C9CACBFCE8540724
:1000B6006010F8C3E913F9EA13FAEB13FBEC13FC2F
:1000C600D8F130F52FC3E49CFCEF9BFFEE9AFEEDD2
:1000D60099FDD0E0FBEF4E4D4C701222DB0302037C
:1000E600B7EC2CFCEF33FFEE33FEED33FDED30E7DE
:1000F600EB020392EF2BFFEE3AFEED39FDD0E0FB6B
:1001060050130BBB00030203BAED13FDEE13FEEF13
:0801160013FFEC13FC0203923D
:10011E00EC4D6011E8497017ED33EC3304600DE4DB
:10012E00FCFFFEFD22E933E8330470F80203B0123F
:10013E00037B58046009E4CC248150062850090240
:10014E0003BA2840030203B7C0E0EB4A7044B980FB
:10015E0006D0E0FB0203A6EF4E701CBD8008EBFF3D
:10016E00EAFEE9FD80EBE98DF0A4FEE5F002020760
:10017E00E9CDF9EAFEEBFFEF89F0A4FCE5F0CE89BC
:10018E00F0A42EFFE435F0CD89F0A42DFEE435F079
:10019E008067EF4E7005BD80D780C3EF8BF0A4ACA7
:1001AE00F0EE8BF0A42CFCE435F0F8EF8AF0A42CE2
:1001BE00E5F038FCE433CB8DF0A42CFCE5F03BF8F5
:1001CE00EE8AF0A42CFCE5F038F8E433CF89F0A4E5
:1001DE002CFCE5F038CF3400CE89F0A42FFFE5F0EB
:1001EE003EFEE433C98DF0A42EFEE5F039CD8AF043
:1001FE00A42FFFE5F03EFEE43DFD33D0E0FB5007BB
:10020E000BBB000F0203BAEC2CFCEF33FFEE33FEF8
:06021E00ED33FD02039226
:100224000203BAEC5D046005E8590470030203B0EC
:1002340012037B580460F6EC4860F2EC7004FDFE97
:10024400FF22C860DB2481C85009C39860025006AD
:100254000203B79850CAF582E9294B4A7005AB826C
:100264000203A675F0007C1A7880C3EF9BEE9AED2A
:1002740099400DC3EF9BFFEE9AFEED99FDE842F025
:10028400DC23ACF0D0E0FFD0E0FED0E0FDAB822078
:10029400E7101BEB60BAEC2CFCEF33FFEE33FEED02
:1002A40033FD020392E803F830E705C0F075F0006F
:1002B400EF2FFFEE33FEED33FD40B830E7C280AAE6
:1002C40074F8CC6480CCC86480C8F58204604FC3E1
:1002D400EB9FF5F0EA9E42F0E99D42F0E89C45F080
:1002E400603C501DE5825FFFE582D313CB5BCBF40A
:1002F4002B5582FB50280ABA002409B90020088033
:100304001DE5825BFBE582D313CF5FCFF4C3132FCC
:100314005582FF50090EBE00050DBD00010CC3EB54
:100324009FF5F0EA9E42F0E99D42F0E89C45F060BA
:0903340007CC4820E701B3EC22DC
:10033D0075F020800E75F010800575F0087D007E3B
:10034D00007F003392D530D5031205ADEC3340104C
:10035D00EF33FFEE33FEED33FDEC33FCD5F0ED2244
:0E036D00E5F0247EA2D513CC92E7CDCEFF2280
:10037B00E9D2E7C933E833F892D5EDD2E7CD33ECC8
:07038B0033FC5002B2D52241
:10039200EC30E7100FBF000C0EBE00080DBD0004CC
:1003A2000BEB6014A2D5EB13FCED92E7FD2274FF78
:1003B200FCFDFEFF22E480F8A2D574FF13FC7D80D1
:0303C200E480EFE5
:100D1C00021972E493A3F8E493A34003F68001F262
:100D2C0008DFF48029E493A3F85407240CC8C333D8
:100D3C00C4540F4420C8834004F456800146F6DFA7
:100D4C00E4800B0102040810204080901451E47ED2
:100D5C00019360BCA3FF543F30E509541FFEE4939C
:100D6C00A360010ECF54C025E060A840B8E493A363
:100D7C00FAE493A3F8E493A3C8C582C8CAC583CA8E
:100D8C00F0A3C8C582C8CAC583CADFE9DEE780BE46
:011492000059
:1003C500BB010689828A83E0225002E722BBFE0236
:0903D500E32289828A83E4932269
:1003DE00BB010689828A83F0225002F722BBFE01FE
:0203EE00F322F8
:1003F000BC000BBE0029EF8DF084FFADF022E4CCF1
:10040000F875F008EF2FFFEE33FEEC33FCEE9DECB9
:10041000984005FCEE9DFE0FD5F0E9E4CEFD22EDFF
:10042000F8F5F0EE8420D21CFEADF075F008EF2F49
:10043000FFED33FD4007985006D5F0F222C398FD3A
:050440000FD5F0EA22D7
:10044500C5F0F8A3E028F0C5F0F8E5821582700242
:060455001583E038F022DF
:10045B00A3F8E0C5F025F0F0E58215827002158354
:06046B00E0C838F0E822B1
:10047100BB010A89828A83F0E5F0A3F0225006F7D6
:0F04810009A7F01922BBFE06F3E5F009F31922D3
:10049000E88FF0A4CC8BF0A42CFCE98EF0A42CFC0B
:1004A0008AF0EDA42CFCEA8EF0A4CDA8F08BF0A489
:1004B0002DCC3825F0FDE98FF0A42CCD35F0FCEBE8
:1004C0008EF0A4FEA9F0EB8FF0A4CFC5F02ECD39AD
:0F04D000FEE43CFCEAA42DCE35F0FDE43CFC221A
:1004DF0075F008758200EF2FFFEE33FECD33CDCCD4
:1004EF0033CCC58233C5829BED9AEC99E582984057
:1004FF000CF582EE9BFEED9AFDEC99FC0FD5F0D634
:10050F00E4CEFBE4CDFAE4CCF9A88222B800C1B95D
:10051F000059BA002DEC8BF084CFCECDFCE5F0CB9B
:10052F00F97818EF2FFFEE33FEED33FDEC33FCEBD4
:10053F0033FB10D703994004EB99FB0FD8E5E4F98F
:10054F00FA227818EF2FFFEE33FEED33FDEC33FC7C
:10055F00C933C910D7059BE99A4007EC9BFCE99A70
:10056F00F90FD8E0E4C9FAE4CCFB2275F010EF2FB5
:10057F00FFEE33FEED33FDCC33CCC833C810D707B5
:10058F009BEC9AE899400AED9BFDEC9AFCE899F8F0
:0E059F000FD5F0DAE4CDFBE4CCFAE4C8F92283
:0E05AD00C3E49FFFE49EFEE49DFDE49CFC225F
:0C05BB00ECF0A3EDF0A3EEF0A3EFF022B3
:1005C700A8828583F0D083D0821205DE1205DE1261
:1005D70005DE1205DEE473E493A3C583C5F0C58386
:1005E700C8C582C8F0A3C583C5F0C583C8C582C87E
:0105F70022E1
:00000001FF
